:04000000C5EF3FF019
:107F8A000001C8EF3FF09598959A959C959E8C882C
:107F9A008C9A8C9C8C9E210E016E760EE82EFED752
:107FAA00012EFCD700F08C988C8A8C9C8C9E210E1A
:107FBA00016E760EE82EFED7012EFCD700F08C98C3
:107FCA008C9A8C8C8C9E210E016E760EE82EFED732
:107FDA00012EFCD700F08C988C9A8C9C8C8E210EEA
:107FEA00016E760EE82EFED7012EFCD700F0CFD711
:067FFA00CED700EF00F0FD
:020000040020DA
:08000000FFFFFFFFFFFFFFFF00
:020000040030CA
:0E0000002408191EFF0181FF0FC00FE00F4002
:00000001FF
