:04000000E3EF3EF0FC
:107DC6000001E6EF3EF0000E956E000E936E00D0B9
:107DD60042EC3FF08FEC3FF0F5EC3EF0F9D7F8D7E8
:107DE60000EF00F0070E816E270E016EF50EE82EED
:107DF600FED7012EFCD7040E816E000E036E000E18
:107E0600026E0350800A800F0A0ED8B4025CD8A016
:107E160001D001D002D032D031D0C00E836E270EF1
:107E2600016EF50EE82EFED7012EFCD7600E836E8E
:107E3600270E016EF50EE82EFED7012EFCD7300E6A
:107E4600836E270E016EF50EE82EFED7012EFCD7A7
:107E5600900E836E270E016EF50EE82EFED7012ECC
:107E6600FCD7024A032A0350800A800F0A0ED8B4B0
:107E7600025CD8A001D001D0D0D700D01200070EE6
:107E8600816E270E016EF50EE82EFED7012EFCD769
:107E9600010E816E000E036E000E026E0350800A04
:107EA600800F0A0ED8B4025CD8A001D001D002D04F
:107EB60032D031D0800E836E270E016EF50EE82E7D
:107EC600FED7012EFCD7400E836E270E016EF50EEF
:107ED600E82EFED7012EFCD7200E836E270E016EEC
:107EE600F50EE82EFED7012EFCD7100E836E270E58
:107EF600016EF50EE82EFED7012EFCD7024A032AA4
:107F06000350800A800F0A0ED8B4025CD8A001D0B4
:107F160001D0D0D700D01200070E816E270E016E59
:107F2600F50EE82EFED7012EFCD7020E816E000E4E
:107F3600036E000E026E0350800A800F0A0ED8B43C
:107F4600025CD8A001D001D002D056D055D0800E08
:107F5600836E270E016EF50EE82EFED7012EFCD796
:107F6600C00E836E270E016EF50EE82EFED7012E8B
:107F7600FCD7400E836E270E016EF50EE82EFED757
:107F8600012EFCD7600E836E270E016EF50EE82ECD
:107F9600FED7012EFCD7200E836E270E016EF50E3E
:107FA600E82EFED7012EFCD7300E836E270E016E0B
:107FB600F50EE82EFED7012EFCD7100E836E270E87
:107FC600016EF50EE82EFED7012EFCD7900E836EBD
:107FD600270E016EF50EE82EFED7012EFCD7024ABB
:107FE600032A0350800A800F0A0ED8B4025CD8A078
:0A7FF60001D001D0ACD700D012007A
:020000040020DA
:08000000FFFFFFFFFFFFFFFF00
:020000040030CA
:0E0000002408191EFF0181FF0FC00FE00F4002
:00000001FF
